{
  "_format": "hh-sol-artifact-1",
  "contractName": "Greeter",
  "sourceName": "contracts/Greeter.sol",
  "abi": [
    {
      "inputs": [],
      "stateMutability": "nonpayable",
      "type": "constructor"
    },
    {
      "inputs": [],
      "name": "ApprovalCallerNotOwnerNorApproved",
      "type": "error"
    },
    {
      "inputs": [],
      "name": "ApprovalQueryForNonexistentToken",
      "type": "error"
    },
    {
      "inputs": [],
      "name": "BalanceQueryForZeroAddress",
      "type": "error"
    },
    {
      "inputs": [],
      "name": "MintERC2309QuantityExceedsLimit",
      "type": "error"
    },
    {
      "inputs": [],
      "name": "MintToZeroAddress",
      "type": "error"
    },
    {
      "inputs": [],
      "name": "MintZeroQuantity",
      "type": "error"
    },
    {
      "inputs": [
        {
          "internalType": "address",
          "name": "owner",
          "type": "address"
        }
      ],
      "name": "OwnableInvalidOwner",
      "type": "error"
    },
    {
      "inputs": [
        {
          "internalType": "address",
          "name": "account",
          "type": "address"
        }
      ],
      "name": "OwnableUnauthorizedAccount",
      "type": "error"
    },
    {
      "inputs": [],
      "name": "OwnerQueryForNonexistentToken",
      "type": "error"
    },
    {
      "inputs": [],
      "name": "OwnershipNotInitializedForExtraData",
      "type": "error"
    },
    {
      "inputs": [],
      "name": "TransferCallerNotOwnerNorApproved",
      "type": "error"
    },
    {
      "inputs": [],
      "name": "TransferFromIncorrectOwner",
      "type": "error"
    },
    {
      "inputs": [],
      "name": "TransferToNonERC721ReceiverImplementer",
      "type": "error"
    },
    {
      "inputs": [],
      "name": "TransferToZeroAddress",
      "type": "error"
    },
    {
      "inputs": [],
      "name": "URIQueryForNonexistentToken",
      "type": "error"
    },
    {
      "anonymous": false,
      "inputs": [
        {
          "indexed": true,
          "internalType": "address",
          "name": "owner",
          "type": "address"
        },
        {
          "indexed": true,
          "internalType": "address",
          "name": "approved",
          "type": "address"
        },
        {
          "indexed": true,
          "internalType": "uint256",
          "name": "tokenId",
          "type": "uint256"
        }
      ],
      "name": "Approval",
      "type": "event"
    },
    {
      "anonymous": false,
      "inputs": [
        {
          "indexed": true,
          "internalType": "address",
          "name": "owner",
          "type": "address"
        },
        {
          "indexed": true,
          "internalType": "address",
          "name": "operator",
          "type": "address"
        },
        {
          "indexed": false,
          "internalType": "bool",
          "name": "approved",
          "type": "bool"
        }
      ],
      "name": "ApprovalForAll",
      "type": "event"
    },
    {
      "anonymous": false,
      "inputs": [
        {
          "indexed": true,
          "internalType": "uint256",
          "name": "fromTokenId",
          "type": "uint256"
        },
        {
          "indexed": false,
          "internalType": "uint256",
          "name": "toTokenId",
          "type": "uint256"
        },
        {
          "indexed": true,
          "internalType": "address",
          "name": "from",
          "type": "address"
        },
        {
          "indexed": true,
          "internalType": "address",
          "name": "to",
          "type": "address"
        }
      ],
      "name": "ConsecutiveTransfer",
      "type": "event"
    },
    {
      "anonymous": false,
      "inputs": [
        {
          "indexed": true,
          "internalType": "address",
          "name": "previousOwner",
          "type": "address"
        },
        {
          "indexed": true,
          "internalType": "address",
          "name": "newOwner",
          "type": "address"
        }
      ],
      "name": "OwnershipTransferred",
      "type": "event"
    },
    {
      "anonymous": false,
      "inputs": [
        {
          "indexed": true,
          "internalType": "address",
          "name": "from",
          "type": "address"
        },
        {
          "indexed": true,
          "internalType": "address",
          "name": "to",
          "type": "address"
        },
        {
          "indexed": true,
          "internalType": "uint256",
          "name": "tokenId",
          "type": "uint256"
        }
      ],
      "name": "Transfer",
      "type": "event"
    },
    {
      "inputs": [],
      "name": "MAX_SUPPLY",
      "outputs": [
        {
          "internalType": "uint256",
          "name": "",
          "type": "uint256"
        }
      ],
      "stateMutability": "view",
      "type": "function"
    },
    {
      "inputs": [],
      "name": "MAX_SUPPLY_PER_USER",
      "outputs": [
        {
          "internalType": "uint256",
          "name": "",
          "type": "uint256"
        }
      ],
      "stateMutability": "view",
      "type": "function"
    },
    {
      "inputs": [],
      "name": "PRICE_PER_TOKEN",
      "outputs": [
        {
          "internalType": "uint256",
          "name": "",
          "type": "uint256"
        }
      ],
      "stateMutability": "view",
      "type": "function"
    },
    {
      "inputs": [],
      "name": "START_TIME",
      "outputs": [
        {
          "internalType": "uint256",
          "name": "",
          "type": "uint256"
        }
      ],
      "stateMutability": "view",
      "type": "function"
    },
    {
      "inputs": [
        {
          "internalType": "address",
          "name": "to",
          "type": "address"
        },
        {
          "internalType": "uint256",
          "name": "tokenId",
          "type": "uint256"
        }
      ],
      "name": "approve",
      "outputs": [],
      "stateMutability": "payable",
      "type": "function"
    },
    {
      "inputs": [
        {
          "internalType": "address",
          "name": "owner",
          "type": "address"
        }
      ],
      "name": "balanceOf",
      "outputs": [
        {
          "internalType": "uint256",
          "name": "",
          "type": "uint256"
        }
      ],
      "stateMutability": "view",
      "type": "function"
    },
    {
      "inputs": [
        {
          "internalType": "uint256",
          "name": "tokenId",
          "type": "uint256"
        }
      ],
      "name": "getApproved",
      "outputs": [
        {
          "internalType": "address",
          "name": "",
          "type": "address"
        }
      ],
      "stateMutability": "view",
      "type": "function"
    },
    {
      "inputs": [
        {
          "internalType": "address",
          "name": "owner",
          "type": "address"
        },
        {
          "internalType": "address",
          "name": "operator",
          "type": "address"
        }
      ],
      "name": "isApprovedForAll",
      "outputs": [
        {
          "internalType": "bool",
          "name": "",
          "type": "bool"
        }
      ],
      "stateMutability": "view",
      "type": "function"
    },
    {
      "inputs": [
        {
          "internalType": "uint256",
          "name": "quantity",
          "type": "uint256"
        }
      ],
      "name": "mint",
      "outputs": [],
      "stateMutability": "payable",
      "type": "function"
    },
    {
      "inputs": [],
      "name": "mintPaused",
      "outputs": [
        {
          "internalType": "bool",
          "name": "",
          "type": "bool"
        }
      ],
      "stateMutability": "view",
      "type": "function"
    },
    {
      "inputs": [],
      "name": "name",
      "outputs": [
        {
          "internalType": "string",
          "name": "",
          "type": "string"
        }
      ],
      "stateMutability": "view",
      "type": "function"
    },
    {
      "inputs": [],
      "name": "owner",
      "outputs": [
        {
          "internalType": "address",
          "name": "",
          "type": "address"
        }
      ],
      "stateMutability": "view",
      "type": "function"
    },
    {
      "inputs": [
        {
          "internalType": "uint256",
          "name": "tokenId",
          "type": "uint256"
        }
      ],
      "name": "ownerOf",
      "outputs": [
        {
          "internalType": "address",
          "name": "",
          "type": "address"
        }
      ],
      "stateMutability": "view",
      "type": "function"
    },
    {
      "inputs": [
        {
          "internalType": "bool",
          "name": "_paused",
          "type": "bool"
        }
      ],
      "name": "pauseMint",
      "outputs": [],
      "stateMutability": "nonpayable",
      "type": "function"
    },
    {
      "inputs": [],
      "name": "renounceOwnership",
      "outputs": [],
      "stateMutability": "nonpayable",
      "type": "function"
    },
    {
      "inputs": [
        {
          "internalType": "address",
          "name": "from",
          "type": "address"
        },
        {
          "internalType": "address",
          "name": "to",
          "type": "address"
        },
        {
          "internalType": "uint256",
          "name": "tokenId",
          "type": "uint256"
        }
      ],
      "name": "safeTransferFrom",
      "outputs": [],
      "stateMutability": "payable",
      "type": "function"
    },
    {
      "inputs": [
        {
          "internalType": "address",
          "name": "from",
          "type": "address"
        },
        {
          "internalType": "address",
          "name": "to",
          "type": "address"
        },
        {
          "internalType": "uint256",
          "name": "tokenId",
          "type": "uint256"
        },
        {
          "internalType": "bytes",
          "name": "_data",
          "type": "bytes"
        }
      ],
      "name": "safeTransferFrom",
      "outputs": [],
      "stateMutability": "payable",
      "type": "function"
    },
    {
      "inputs": [
        {
          "internalType": "address",
          "name": "operator",
          "type": "address"
        },
        {
          "internalType": "bool",
          "name": "approved",
          "type": "bool"
        }
      ],
      "name": "setApprovalForAll",
      "outputs": [],
      "stateMutability": "nonpayable",
      "type": "function"
    },
    {
      "inputs": [
        {
          "internalType": "string",
          "name": "baseURI",
          "type": "string"
        }
      ],
      "name": "setBaseURI",
      "outputs": [],
      "stateMutability": "nonpayable",
      "type": "function"
    },
    {
      "inputs": [
        {
          "internalType": "bytes4",
          "name": "interfaceId",
          "type": "bytes4"
        }
      ],
      "name": "supportsInterface",
      "outputs": [
        {
          "internalType": "bool",
          "name": "",
          "type": "bool"
        }
      ],
      "stateMutability": "view",
      "type": "function"
    },
    {
      "inputs": [],
      "name": "symbol",
      "outputs": [
        {
          "internalType": "string",
          "name": "",
          "type": "string"
        }
      ],
      "stateMutability": "view",
      "type": "function"
    },
    {
      "inputs": [
        {
          "internalType": "uint256",
          "name": "tokenId",
          "type": "uint256"
        }
      ],
      "name": "tokenURI",
      "outputs": [
        {
          "internalType": "string",
          "name": "",
          "type": "string"
        }
      ],
      "stateMutability": "view",
      "type": "function"
    },
    {
      "inputs": [],
      "name": "totalSupply",
      "outputs": [
        {
          "internalType": "uint256",
          "name": "",
          "type": "uint256"
        }
      ],
      "stateMutability": "view",
      "type": "function"
    },
    {
      "inputs": [
        {
          "internalType": "address",
          "name": "from",
          "type": "address"
        },
        {
          "internalType": "address",
          "name": "to",
          "type": "address"
        },
        {
          "internalType": "uint256",
          "name": "tokenId",
          "type": "uint256"
        }
      ],
      "name": "transferFrom",
      "outputs": [],
      "stateMutability": "payable",
      "type": "function"
    },
    {
      "inputs": [
        {
          "internalType": "address",
          "name": "newOwner",
          "type": "address"
        }
      ],
      "name": "transferOwnership",
      "outputs": [],
      "stateMutability": "nonpayable",
      "type": "function"
    },
    {
      "inputs": [],
      "name": "withdraw",
      "outputs": [],
      "stateMutability": "nonpayable",
      "type": "function"
    }
  ],
  "bytecode": "0x60a06040523480156200001157600080fd5b506040518060400160405280600781526020017f47726565746572000000000000000000000000000000000000000000000000008152506040518060400160405280600581526020017f373231415400000000000000000000000000000000000000000000000000000081525033600073ffffffffffffffffffffffffffffffffffffffff168173ffffffffffffffffffffffffffffffffffffffff1603620000f45760006040517f1e4fbdf7000000000000000000000000000000000000000000000000000000008152600401620000eb919062000337565b60405180910390fd5b62000105816200017960201b60201c565b5081600390805190602001906200011e92919062000242565b5080600490805190602001906200013792919062000242565b50620001486200023d60201b60201c565b600181905550505042608081815250506000600960006101000a81548160ff021916908315150217905550620003b8565b60008060009054906101000a900473ffffffffffffffffffffffffffffffffffffffff169050816000806101000a81548173ffffffffffffffffffffffffffffffffffffffff021916908373ffffffffffffffffffffffffffffffffffffffff1602179055508173ffffffffffffffffffffffffffffffffffffffff168173ffffffffffffffffffffffffffffffffffffffff167f8be0079c531659141344cd1fd0a4f28419497f9722a3daafe3b4186f6b6457e060405160405180910390a35050565b600090565b828054620002509062000383565b90600052602060002090601f016020900481019282620002745760008555620002c0565b82601f106200028f57805160ff1916838001178555620002c0565b82800160010185558215620002c0579182015b82811115620002bf578251825591602001919060010190620002a2565b5b509050620002cf9190620002d3565b5090565b5b80821115620002ee576000816000905550600101620002d4565b5090565b600073ffffffffffffffffffffffffffffffffffffffff82169050919050565b60006200031f82620002f2565b9050919050565b620003318162000312565b82525050565b60006020820190506200034e600083018462000326565b92915050565b7f4e487b7100000000000000000000000000000000000000000000000000000000600052602260045260246000fd5b600060028204905060018216806200039c57607f821691505b602082108103620003b257620003b162000354565b5b50919050565b608051612684620003db60003960008181610cc40152610fb701526126846000f3fe6080604052600436106101815760003560e01c8063715018a6116100d1578063a22cb4651161008a578063ddaa26ad11610064578063ddaa26ad1461051b578063e985e9c514610546578063f2fde38b14610583578063f30e6e77146105ac57610181565b8063a22cb46514610499578063b88d4fde146104c2578063c87b56dd146104de57610181565b8063715018a6146103ba5780637e4831d3146103d1578063833b9499146103fc5780638da5cb5b1461042757806395d89b4114610452578063a0712d681461047d57610181565b806332cb6b0c1161013e57806355f804b31161011857806355f804b3146102ec57806360f1f878146103155780636352211e1461034057806370a082311461037d57610181565b806332cb6b0c1461028e5780633ccfd60b146102b957806342842e0e146102d057610181565b806301ffc9a71461018657806306fdde03146101c3578063081812fc146101ee578063095ea7b31461022b57806318160ddd1461024757806323b872dd14610272575b600080fd5b34801561019257600080fd5b506101ad60048036038101906101a89190611b12565b6105d5565b6040516101ba9190611b5a565b60405180910390f35b3480156101cf57600080fd5b506101d8610667565b6040516101e59190611c0e565b60405180910390f35b3480156101fa57600080fd5b5061021560048036038101906102109190611c66565b6106f9565b6040516102229190611cd4565b60405180910390f35b61024560048036038101906102409190611d1b565b610757565b005b34801561025357600080fd5b5061025c610767565b6040516102699190611d6a565b60405180910390f35b61028c60048036038101906102879190611d85565b61077e565b005b34801561029a57600080fd5b506102a3610a3f565b6040516102b09190611d6a565b60405180910390f35b3480156102c557600080fd5b506102ce610a44565b005b6102ea60048036038101906102e59190611d85565b610a9b565b005b3480156102f857600080fd5b50610313600480360381019061030e9190611e3d565b610abb565b005b34801561032157600080fd5b5061032a610ad9565b6040516103379190611d6a565b60405180910390f35b34801561034c57600080fd5b5061036760048036038101906103629190611c66565b610ade565b6040516103749190611cd4565b60405180910390f35b34801561038957600080fd5b506103a4600480360381019061039f9190611e8a565b610af0565b6040516103b19190611d6a565b60405180910390f35b3480156103c657600080fd5b506103cf610b87565b005b3480156103dd57600080fd5b506103e6610b9b565b6040516103f39190611b5a565b60405180910390f35b34801561040857600080fd5b50610411610bae565b60405161041e9190611d6a565b60405180910390f35b34801561043357600080fd5b5061043c610bb7565b6040516104499190611cd4565b60405180910390f35b34801561045e57600080fd5b50610467610be0565b6040516104749190611c0e565b60405180910390f35b61049760048036038101906104929190611c66565b610c72565b005b3480156104a557600080fd5b506104c060048036038101906104bb9190611ee3565b610ddb565b005b6104dc60048036038101906104d79190612053565b610ee6565b005b3480156104ea57600080fd5b5061050560048036038101906105009190611c66565b610f38565b6040516105129190611c0e565b60405180910390f35b34801561052757600080fd5b50610530610fb5565b60405161053d9190611d6a565b60405180910390f35b34801561055257600080fd5b5061056d600480360381019061056891906120d6565b610fd9565b60405161057a9190611b5a565b60405180910390f35b34801561058f57600080fd5b506105aa60048036038101906105a59190611e8a565b61106d565b005b3480156105b857600080fd5b506105d360048036038101906105ce9190612116565b6110f3565b005b60006301ffc9a760e01b827bffffffffffffffffffffffffffffffffffffffffffffffffffffffff1916148061063057506380ac58cd60e01b827bffffffffffffffffffffffffffffffffffffffffffffffffffffffff1916145b806106605750635b5e139f60e01b827bffffffffffffffffffffffffffffffffffffffffffffffffffffffff1916145b9050919050565b60606003805461067690612172565b80601f01602080910402602001604051908101604052809291908181526020018280546106a290612172565b80156106ef5780601f106106c4576101008083540402835291602001916106ef565b820191906000526020600020905b8154815290600101906020018083116106d257829003601f168201915b5050505050905090565b600061070482611168565b6107195761071863cf4700e460e01b6111e1565b5b6007600083815260200190815260200160002060000160009054906101000a900473ffffffffffffffffffffffffffffffffffffffff169050919050565b610763828260016111eb565b5050565b600061077161131a565b6002546001540303905090565b60006107898261131f565b905073ffffffffffffffffffffffffffffffffffffffff8473ffffffffffffffffffffffffffffffffffffffff161693508373ffffffffffffffffffffffffffffffffffffffff168173ffffffffffffffffffffffffffffffffffffffff16146107fe576107fd63a114810060e01b6111e1565b5b60008061080a8461140b565b91509150610820818761081b611432565b61143a565b61084b5761083586610830611432565b610fd9565b61084a576108496359c896be60e01b6111e1565b5b5b610858868686600161147e565b801561086357600082555b600660008773ffffffffffffffffffffffffffffffffffffffff1673ffffffffffffffffffffffffffffffffffffffff168152602001908152602001600020600081546001900391905081905550600660008673ffffffffffffffffffffffffffffffffffffffff1673ffffffffffffffffffffffffffffffffffffffff16815260200190815260200160002060008154600101919050819055506109318561090d888887611484565b7c0200000000000000000000000000000000000000000000000000000000176114ac565b600560008681526020019081526020016000208190555060007c02000000000000000000000000000000000000000000000000000000008416036109b757600060018501905060006005600083815260200190815260200160002054036109b55760015481146109b4578360056000838152602001908152602001600020819055505b5b505b600073ffffffffffffffffffffffffffffffffffffffff8673ffffffffffffffffffffffffffffffffffffffff161690508481887fddf252ad1be2c89b69c2b068fc378daa952ba7f163c4a11628f55a4df523b3ef600080a460008103610a2957610a2863ea553b3460e01b6111e1565b5b610a3687878760016114d7565b50505050505050565b606481565b610a4c6114dd565b60004790503373ffffffffffffffffffffffffffffffffffffffff166108fc829081150290604051600060405180830381858888f19350505050158015610a97573d6000803e3d6000fd5b5050565b610ab683838360405180602001604052806000815250610ee6565b505050565b610ac36114dd565b8181600a9190610ad4929190611a03565b505050565b600581565b6000610ae98261131f565b9050919050565b60008073ffffffffffffffffffffffffffffffffffffffff168273ffffffffffffffffffffffffffffffffffffffff1603610b3657610b35638f4eb60460e01b6111e1565b5b67ffffffffffffffff600660008473ffffffffffffffffffffffffffffffffffffffff1673ffffffffffffffffffffffffffffffffffffffff16815260200190815260200160002054169050919050565b610b8f6114dd565b610b996000611564565b565b600960009054906101000a900460ff1681565b64e8d4a5100081565b60008060009054906101000a900473ffffffffffffffffffffffffffffffffffffffff16905090565b606060048054610bef90612172565b80601f0160208091040260200160405190810160405280929190818152602001828054610c1b90612172565b8015610c685780601f10610c3d57610100808354040283529160200191610c68565b820191906000526020600020905b815481529060010190602001808311610c4b57829003601f168201915b5050505050905090565b600960009054906101000a900460ff1615610cc2576040517f08c379a0000000000000000000000000000000000000000000000000000000008152600401610cb9906121ef565b60405180910390fd5b7f0000000000000000000000000000000000000000000000000000000000000000421015610d25576040517f08c379a0000000000000000000000000000000000000000000000000000000008152600401610d1c9061225b565b60405180910390fd5b606481610d30611628565b610d3a91906122aa565b1115610d7b576040517f08c379a0000000000000000000000000000000000000000000000000000000008152600401610d729061234c565b60405180910390fd5b64e8d4a5100081610d8c919061236c565b341015610dce576040517f08c379a0000000000000000000000000000000000000000000000000000000008152600401610dc590612412565b60405180910390fd5b610dd8338261163b565b50565b8060086000610de8611432565b73ffffffffffffffffffffffffffffffffffffffff1673ffffffffffffffffffffffffffffffffffffffff16815260200190815260200160002060008473ffffffffffffffffffffffffffffffffffffffff1673ffffffffffffffffffffffffffffffffffffffff16815260200190815260200160002060006101000a81548160ff0219169083151502179055508173ffffffffffffffffffffffffffffffffffffffff16610e95611432565b73ffffffffffffffffffffffffffffffffffffffff167f17307eab39ab6107e8899845ad3d59bd9653f200f220920489ca2b5937696c3183604051610eda9190611b5a565b60405180910390a35050565b610ef184848461077e565b60008373ffffffffffffffffffffffffffffffffffffffff163b14610f3257610f1c84848484611659565b610f3157610f3063d1a57ed660e01b6111e1565b5b5b50505050565b6060610f4382611168565b610f5857610f5763a14c4b5060e01b6111e1565b5b6000610f62611788565b90506000815103610f825760405180602001604052806000815250610fad565b80610f8c846117a8565b604051602001610f9d92919061246e565b6040516020818303038152906040525b915050919050565b7f000000000000000000000000000000000000000000000000000000000000000081565b6000600860008473ffffffffffffffffffffffffffffffffffffffff1673ffffffffffffffffffffffffffffffffffffffff16815260200190815260200160002060008373ffffffffffffffffffffffffffffffffffffffff1673ffffffffffffffffffffffffffffffffffffffff16815260200190815260200160002060009054906101000a900460ff16905092915050565b6110756114dd565b600073ffffffffffffffffffffffffffffffffffffffff168173ffffffffffffffffffffffffffffffffffffffff16036110e75760006040517f1e4fbdf70000000000000000000000000000000000000000000000000000000081526004016110de9190611cd4565b60405180910390fd5b6110f081611564565b50565b6110fb6114dd565b600960009054906101000a900460ff161561114b576040517f08c379a0000000000000000000000000000000000000000000000000000000008152600401611142906124de565b60405180910390fd5b80600960006101000a81548160ff02191690831515021790555050565b60008161117361131a565b116111dc576001548210156111db5760005b60006005600085815260200190815260200160002054915081036111b457826111ad906124fe565b9250611185565b60007c01000000000000000000000000000000000000000000000000000000008216149150505b5b919050565b8060005260046000fd5b60006111f683610ade565b905081801561123857508073ffffffffffffffffffffffffffffffffffffffff1661121f611432565b73ffffffffffffffffffffffffffffffffffffffff1614155b156112645761124e81611249611432565b610fd9565b6112635761126263cfb3b94260e01b6111e1565b5b5b836007600085815260200190815260200160002060000160006101000a81548173ffffffffffffffffffffffffffffffffffffffff021916908373ffffffffffffffffffffffffffffffffffffffff160217905550828473ffffffffffffffffffffffffffffffffffffffff168273ffffffffffffffffffffffffffffffffffffffff167f8c5be1e5ebec7d5bd14f71427d1e84f3dd0314c0f7b2291e5b200ac8c7c3b92560405160405180910390a450505050565b600090565b60008161132a61131a565b116113f55760056000838152602001908152602001600020549050600081036113cc5760015482106113675761136663df2d9b4260e01b6111e1565b5b5b600560008360019003935083815260200190815260200160002054905060008103156113c75760007c010000000000000000000000000000000000000000000000000000000082160315611406576113c663df2d9b4260e01b6111e1565b5b611368565b60007c010000000000000000000000000000000000000000000000000000000082160315611406575b61140563df2d9b4260e01b6111e1565b5b919050565b60008060006007600085815260200190815260200160002090508092508254915050915091565b600033905090565b600073ffffffffffffffffffffffffffffffffffffffff8316925073ffffffffffffffffffffffffffffffffffffffff821691508382148383141790509392505050565b50505050565b60008060e883901c905060e861149b8686846117f8565b62ffffff16901b9150509392505050565b600073ffffffffffffffffffffffffffffffffffffffff83169250814260a01b178317905092915050565b50505050565b6114e5611801565b73ffffffffffffffffffffffffffffffffffffffff16611503610bb7565b73ffffffffffffffffffffffffffffffffffffffff161461156257611526611801565b6040517f118cdaa70000000000000000000000000000000000000000000000000000000081526004016115599190611cd4565b60405180910390fd5b565b60008060009054906101000a900473ffffffffffffffffffffffffffffffffffffffff169050816000806101000a81548173ffffffffffffffffffffffffffffffffffffffff021916908373ffffffffffffffffffffffffffffffffffffffff1602179055508173ffffffffffffffffffffffffffffffffffffffff168173ffffffffffffffffffffffffffffffffffffffff167f8be0079c531659141344cd1fd0a4f28419497f9722a3daafe3b4186f6b6457e060405160405180910390a35050565b600061163261131a565b60015403905090565b611655828260405180602001604052806000815250611809565b5050565b60008373ffffffffffffffffffffffffffffffffffffffff1663150b7a0261167f611432565b8786866040518563ffffffff1660e01b81526004016116a1949392919061257c565b6020604051808303816000875af19250505080156116dd57506040513d601f19601f820116820180604052508101906116da91906125dd565b60015b611735573d806000811461170d576040519150601f19603f3d011682016040523d82523d6000602084013e611712565b606091505b50600081510361172d5761172c63d1a57ed660e01b6111e1565b5b805181602001fd5b63150b7a0260e01b7bffffffffffffffffffffffffffffffffffffffffffffffffffffffff1916817bffffffffffffffffffffffffffffffffffffffffffffffffffffffff191614915050949350505050565b606060405180608001604052806044815260200161260b60449139905090565b606060a060405101806040526020810391506000825281835b6001156117e357600184039350600a81066030018453600a81049050806117c1575b50828103602084039350808452505050919050565b60009392505050565b600033905090565b611813838361188f565b60008373ffffffffffffffffffffffffffffffffffffffff163b1461188a5760006001549050600083820390505b6118546000868380600101945086611659565b6118695761186863d1a57ed660e01b6111e1565b5b81811061184157816001541461188757611886600060e01b6111e1565b5b50505b505050565b60006001549050600082036118af576118ae63b562e8dd60e01b6111e1565b5b6118bc600084838561147e565b6118dc836118cd6000866000611484565b6118d6856119f3565b176114ac565b6005600083815260200190815260200160002081905550600160406001901b178202600660008573ffffffffffffffffffffffffffffffffffffffff1673ffffffffffffffffffffffffffffffffffffffff16815260200190815260200160002060008282540192505081905550600073ffffffffffffffffffffffffffffffffffffffff8473ffffffffffffffffffffffffffffffffffffffff161690506000810361199457611993632e07630060e01b6111e1565b5b6000838301905060008390505b808360007fddf252ad1be2c89b69c2b068fc378daa952ba7f163c4a11628f55a4df523b3ef600080a48181600101915081036119a157816001819055505050506119ee60008483856114d7565b505050565b60006001821460e11b9050919050565b828054611a0f90612172565b90600052602060002090601f016020900481019282611a315760008555611a78565b82601f10611a4a57803560ff1916838001178555611a78565b82800160010185558215611a78579182015b82811115611a77578235825591602001919060010190611a5c565b5b509050611a859190611a89565b5090565b5b80821115611aa2576000816000905550600101611a8a565b5090565b6000604051905090565b600080fd5b600080fd5b60007fffffffff0000000000000000000000000000000000000000000000000000000082169050919050565b611aef81611aba565b8114611afa57600080fd5b50565b600081359050611b0c81611ae6565b92915050565b600060208284031215611b2857611b27611ab0565b5b6000611b3684828501611afd565b91505092915050565b60008115159050919050565b611b5481611b3f565b82525050565b6000602082019050611b6f6000830184611b4b565b92915050565b600081519050919050565b600082825260208201905092915050565b60005b83811015611baf578082015181840152602081019050611b94565b83811115611bbe576000848401525b50505050565b6000601f19601f8301169050919050565b6000611be082611b75565b611bea8185611b80565b9350611bfa818560208601611b91565b611c0381611bc4565b840191505092915050565b60006020820190508181036000830152611c288184611bd5565b905092915050565b6000819050919050565b611c4381611c30565b8114611c4e57600080fd5b50565b600081359050611c6081611c3a565b92915050565b600060208284031215611c7c57611c7b611ab0565b5b6000611c8a84828501611c51565b91505092915050565b600073ffffffffffffffffffffffffffffffffffffffff82169050919050565b6000611cbe82611c93565b9050919050565b611cce81611cb3565b82525050565b6000602082019050611ce96000830184611cc5565b92915050565b611cf881611cb3565b8114611d0357600080fd5b50565b600081359050611d1581611cef565b92915050565b60008060408385031215611d3257611d31611ab0565b5b6000611d4085828601611d06565b9250506020611d5185828601611c51565b9150509250929050565b611d6481611c30565b82525050565b6000602082019050611d7f6000830184611d5b565b92915050565b600080600060608486031215611d9e57611d9d611ab0565b5b6000611dac86828701611d06565b9350506020611dbd86828701611d06565b9250506040611dce86828701611c51565b9150509250925092565b600080fd5b600080fd5b600080fd5b60008083601f840112611dfd57611dfc611dd8565b5b8235905067ffffffffffffffff811115611e1a57611e19611ddd565b5b602083019150836001820283011115611e3657611e35611de2565b5b9250929050565b60008060208385031215611e5457611e53611ab0565b5b600083013567ffffffffffffffff811115611e7257611e71611ab5565b5b611e7e85828601611de7565b92509250509250929050565b600060208284031215611ea057611e9f611ab0565b5b6000611eae84828501611d06565b91505092915050565b611ec081611b3f565b8114611ecb57600080fd5b50565b600081359050611edd81611eb7565b92915050565b60008060408385031215611efa57611ef9611ab0565b5b6000611f0885828601611d06565b9250506020611f1985828601611ece565b9150509250929050565b600080fd5b7f4e487b7100000000000000000000000000000000000000000000000000000000600052604160045260246000fd5b611f6082611bc4565b810181811067ffffffffffffffff82111715611f7f57611f7e611f28565b5b80604052505050565b6000611f92611aa6565b9050611f9e8282611f57565b919050565b600067ffffffffffffffff821115611fbe57611fbd611f28565b5b611fc782611bc4565b9050602081019050919050565b82818337600083830152505050565b6000611ff6611ff184611fa3565b611f88565b90508281526020810184848401111561201257612011611f23565b5b61201d848285611fd4565b509392505050565b600082601f83011261203a57612039611dd8565b5b813561204a848260208601611fe3565b91505092915050565b6000806000806080858703121561206d5761206c611ab0565b5b600061207b87828801611d06565b945050602061208c87828801611d06565b935050604061209d87828801611c51565b925050606085013567ffffffffffffffff8111156120be576120bd611ab5565b5b6120ca87828801612025565b91505092959194509250565b600080604083850312156120ed576120ec611ab0565b5b60006120fb85828601611d06565b925050602061210c85828601611d06565b9150509250929050565b60006020828403121561212c5761212b611ab0565b5b600061213a84828501611ece565b91505092915050565b7f4e487b7100000000000000000000000000000000000000000000000000000000600052602260045260246000fd5b6000600282049050600182168061218a57607f821691505b60208210810361219d5761219c612143565b5b50919050565b7f4d696e7420697320706175736564000000000000000000000000000000000000600082015250565b60006121d9600e83611b80565b91506121e4826121a3565b602082019050919050565b60006020820190508181036000830152612208816121cc565b9050919050565b7f53616c65206e6f74207374617274656400000000000000000000000000000000600082015250565b6000612245601083611b80565b91506122508261220f565b602082019050919050565b6000602082019050818103600083015261227481612238565b9050919050565b7f4e487b7100000000000000000000000000000000000000000000000000000000600052601160045260246000fd5b60006122b582611c30565b91506122c083611c30565b9250827fffffffffffffffffffffffffffffffffffffffffffffffffffffffffffffffff038211156122f5576122f461227b565b5b828201905092915050565b7f4d617820537570706c7920486974000000000000000000000000000000000000600082015250565b6000612336600e83611b80565b915061234182612300565b602082019050919050565b6000602082019050818103600083015261236581612329565b9050919050565b600061237782611c30565b915061238283611c30565b9250817fffffffffffffffffffffffffffffffffffffffffffffffffffffffffffffffff04831182151516156123bb576123ba61227b565b5b828202905092915050565b7f496e73756666696369656e742046756e64730000000000000000000000000000600082015250565b60006123fc601283611b80565b9150612407826123c6565b602082019050919050565b6000602082019050818103600083015261242b816123ef565b9050919050565b600081905092915050565b600061244882611b75565b6124528185612432565b9350612462818560208601611b91565b80840191505092915050565b600061247a828561243d565b9150612486828461243d565b91508190509392505050565b7f436f6e7472616374207061757365642e00000000000000000000000000000000600082015250565b60006124c8601083611b80565b91506124d382612492565b602082019050919050565b600060208201905081810360008301526124f7816124bb565b9050919050565b600061250982611c30565b91506000820361251c5761251b61227b565b5b600182039050919050565b600081519050919050565b600082825260208201905092915050565b600061254e82612527565b6125588185612532565b9350612568818560208601611b91565b61257181611bc4565b840191505092915050565b60006080820190506125916000830187611cc5565b61259e6020830186611cc5565b6125ab6040830185611d5b565b81810360608301526125bd8184612543565b905095945050505050565b6000815190506125d781611ae6565b92915050565b6000602082840312156125f3576125f2611ab0565b5b6000612601848285016125c8565b9150509291505056fe68747470733a2f2f697066732e696f2f697066732f516d50713538465456615a756b694236713853587a31634d694d4545506142737775796b544e6b66685775444e7a2fa264697066735822122017946b92f884dbffb6a53e0e9faee1bcc6bd70c71de31a63018a03787b9aa67a64736f6c634300080d0033",
  "linkReferences": {},
  "deployedLinkReferences": {}
}